:020000040800F2
:10000000008000209D03000881030008830300088E
:10001000850300088703000889030008000000002A
:100020000000000000000000000000008B0300083A
:100030008D030008000000008F03000891030008F2
:10004000ED030008ED030008ED030008ED030008D0
:10005000ED030008ED030008ED030008ED030008C0
:10006000ED030008ED030008ED030008ED030008B0
:10007000ED030008ED030008ED030008ED030008A0
:10008000ED030008ED030008ED0300080000000088
:10009000000000000000000000000000ED03000868
:1000A000ED030008ED030008ED030008ED03000870
:1000B000ED030008ED030008ED030008ED03000860
:1000C000ED030008ED030008ED030008ED03000850
:1000D000ED030008ED030008ED0300080000000038
:1000E000ED030008ED030008ED0300080000000028
:1000F000000000000000000000000000ED03000808
:1001000000000000ED030008ED030008ED03000807
:1001100000000000000000000000000000000000DF
:10012000ED030008ED030008ED030008ED030008EF
:10013000ED030008000000000000000000000000C7
:10014000000000000000000000000000ED030008B7
:10015000ED030008ED030008ED030008ED030008BF
:10016000ED030008ED03000800000000000000009F
:10017000000000000000000000000000000000007F
:1001800000000000ED030008000000000000000077
:10019000ED03000853B94AB9002908BF00281CBF65
:1001A0004FF0FF314FF0FF3000F00CB8ADF1080C0C
:1001B0006DE904CE00F0E4FDDDF804E0DDE90223A2
:1001C00004B07047704700BF10B5054C237833B9B1
:1001D000044B13B10448AFF300800123237010BD1A
:1001E00010000020000000000812000808B5034BB2
:1001F0001BB103490348AFF3008008BD00000000B5
:10020000140000200812000830B589B000240394BF
:1002100004940594069407940194144B1A6B42F0CD
:1002200004021A631A6B02F004020192019A02940A
:100230001A6B42F001021A631B6B03F00103029375
:10024000029B0B4D22464FF40051284600F088FADD
:100250004FF400530393012304930594069403A9D8
:10026000284600F095F909B030BD00BF00380240C3
:100270000008024072B6FEE700B595B030220021BA
:1002800008A800F0E1FE002303930493059306936E
:1002900007930193194A116C41F080511164126C5B
:1002A00002F080520192019A029315490A6822F4E1
:1002B000404242F400420A600A6802F4404202925C
:1002C000029A0222089201220B9210220C920E93A3
:1002D00008A800F055FA68B90F2303930021049190
:1002E00005910691079103A800F09AFC20B915B07A
:1002F0005DF804FBFFF7BEFFFFF7BCFF00380240CC
:100300000070004008B500F099F8FFF7B5FFFFF75F
:100310007BFF0221012020F073FD022808D04FF45A
:100320000051084800F022FA642000F0B3F8F6E724
:100330004FF40051034800F019FA4FF47A7000F0BE
:10034000A9F8F5E70008024082B0002100910B4BAC
:100350005A6C42F480425A645A6C02F48042009211
:10036000009A01911A6C42F080521A641B6C03F0DF
:1003700080530193019B02B0704700BF00380240D8
:10038000FEE7FEE7FEE7FEE7FEE7704770477047CF
:1003900008B500F06DF808BD70470000DFF834D0F4
:1003A0000D480E490E4A002302E0D458C4500433CD
:1003B000C4188C42F9D30B4A0B4C002301E01360A4
:1003C0000432A242FBD3FFF7E7FF00F08FFEFFF7F6
:1003D00099FF7047008000200000002010000020DE
:1003E0004412000810000020C8010020FEE70000B1
:1003F00010B504460E4B1A784FF47A73B3FBF2F340
:100400000C4A1068B0FBF3F000F0AEF868B90F2C9E
:1004100001D901200AE0002221464FF0FF3000F010
:1004200093F8054B1C60002000E0012010BD00BFC8
:1004300004000020000000200800002008B50B4B3D
:100440001A6842F400721A601A6842F480621A60F4
:100450001A6842F480721A60032000F063F80F20DB
:10046000FFF7C6FFFFF770FF002008BD003C024009
:10047000034A1168034B1B780B441360704700BF9D
:100480002C00002004000020014B1868704700BFBA
:100490002C00002038B50446FFF7F6FF0546B4F1FE
:1004A000FF3F02D0044B1B781C44FFF7EDFF401BBD
:1004B000A042FAD338BD00BF04000020002808DBAA
:1004C0000901C9B200F1604000F5614080F80013F5
:1004D000704700F00F000901C9B2014B1954704771
:1004E00014ED00E000B500F00700C0F1070CBCF10E
:1004F000040F28BF4FF0040C031D062B0FD9C31E99
:100500004FF0FF3E0EFA0CF021EA000199400EFA7E
:1005100003FE22EA0E0241EA02005DF804FB00231A
:10052000EEE70000074AD36823F4E0631B041B0CCA
:10053000000200F4E060034343F0BF6343F4003380
:10054000D360704700ED00E010B50446054BD86855
:10055000C0F30220FFF7C6FF01462046FFF7AEFFBB
:1005600010BD00BF00ED00E00138B0F1807F0BD27C
:100570004FF0E0235861054AF02182F82310002053
:10058000986107221A6170470120704700ED00E072
:1005900000230F2B00F2DA8030B583B068E0856865
:1005A0004FEA430E032404FA0EF425EA0405CC684E
:1005B00004FA0EF42C438460446824EA02044A6876
:1005C000C2F300129A40224342605FE0DC08083424
:1005D00050F8242003F00705AD004FF00F0E0EFA7F
:1005E00005FE22EA0E0E0A69AA4042EA0E0240F80F
:1005F00024205FE0042200E0002202FA0EF22A43E7
:100600000234534D45F82420524A94686FEA0C0294
:1006100024EA0C05D1F804E01EF4801F01D04CEA56
:1006200004054C4CA560E46802EA0405D1F804E036
:100630001EF4001F01D04CEA0405464CE5606468D6
:1006400002EA0405D1F804E01EF4003F01D04CEAB0
:100650000405404C6560246822404D6815F4803FD5
:1006600001D04CEA04023B4C226001330F2B6BD8C3
:1006700001229A400C6804EA020C32EA0404F4D124
:100680004C6804F00304013C012C88D94A6802F04C
:100690000302032A09D0C4685D000322AA4024EAA9
:1006A00002048A68AA402243C2604A6802F0030238
:1006B000022A8BD004684FEA430E032202FA0EF29C
:1006C00024EA02044A6802F0030202FA0EF222430C
:1006D00002604A6812F4403FC7D0002201921E4ACD
:1006E000546C44F480445464526C02F4804201928D
:1006F000019A9C08A51C164A52F8255003F0030ED7
:100700004FEA8E0E0F2202FA0EF225EA0205134A74
:1007100090423FF471AF02F5806290420ED002F534
:10072000806290420CD002F5806290420AD002F5BD
:10073000806290423FF45EAF07225EE701225CE7F1
:1007400002225AE7032258E703B030BD704700BFCA
:1007500000380140003C01400038024000000240E7
:100760000AB181617047090481617047436901EAF8
:10077000030221EA030141EA02418161704700005E
:10078000002800F0E08170B582B00446036813F0E1
:10079000010F3BD09F4B9B6803F00C03042B2CD024
:1007A0009C4B9B6803F00C03082B21D06368B3F5C6
:1007B000803F4FD0B3F5A02F52D0964B1A6822F449
:1007C00080321A601A6822F480221A606368002B53
:1007D00050D0FFF759FE05468E4B1B6813F4003FBF
:1007E00014D1FFF751FE401B6428F5D90320B1E175
:1007F000884B5B6813F4800FD8D0864B1B6813F4CA
:10080000003F03D06368002B00F09F81236813F042
:10081000020F54D07F4B9B6813F00C0F3ED07D4BE2
:100820009B6803F00C03082B33D0E368002B68D0DF
:10083000794B01221A60FFF727FE0546754B1B68AE
:1008400013F0020F54D1FFF71FFE401B0228F5D909
:1008500003207FE16F4A136843F480331360B5E7E8
:100860006C4B1A6842F480221A601A6842F4803293
:100870001A60ABE7FFF708FE0546664B1B6813F4EA
:10088000003FC3D0FFF700FE401B6428F5D90320CA
:1008900060E1604B5B6813F4800FC6D15D4B1B6851
:1008A00013F0020F03D0E368012B40F05081594A46
:1008B000136823F0F803216943EAC1031360236836
:1008C00013F0080F42D063696BB3534B0122C3F896
:1008D000802EFFF7D9FD05464E4B5B6F13F0020FDC
:1008E00034D1FFF7D1FD401B0228F5D9032031E1B7
:1008F000484A136823F0F803216943EAC1031360EF
:10090000DDE7454B00221A60FFF7BEFD0546414B6F
:100910001B6813F0020FD2D0FFF7B6FD401B022870
:10092000F5D9032016E13C4B0022C3F8802EFFF7D7
:10093000ABFD0546374B5B6F13F0020F06D0FFF798
:10094000A3FD401B0228F5D9032003E1236813F01F
:10095000040F77D02F4B1B6C13F0805F33D1002333
:1009600001932C4B1A6C42F080521A641B6C03F0FA
:1009700080530193019B0125284B1B6813F4807F52
:1009800023D0A368012B34D0052B38D0214B1A6F0C
:1009900022F001021A671A6F22F004021A67A36894
:1009A000002B3DD0FFF770FD06461A4B1B6F13F06E
:1009B000020F46D1FFF768FD801B41F28833984251
:1009C000F3D90320C6E00025D6E7144A136843F4A0
:1009D00080731360FFF758FD0646104B1B6813F435
:1009E000807FCED1FFF750FD801B0228F5D9032070
:1009F000B0E0084A136F43F001031367CFE7054BDC
:100A00001A6F42F004021A671A6F42F001021A6765
:100A1000C5E700BF003802400000474200700040B8
:100A2000FFF732FD0646524B1B6F13F0020F08D042
:100A3000FFF72AFD801B41F288339842F3D9032047
:100A400088E0EDB9A369002B00F08380484A9268E2
:100A500002F00C02082A51D0022B17D0454B00227D
:100A60001A66FFF711FD0446414B1B6813F0007F27
:100A700042D0FFF709FD001B0228F5D9032069E0E9
:100A80003B4A136C23F080531364DBE7394B00229D
:100A90001A66FFF7F9FC0546354B1B6813F0007F1B
:100AA00006D0FFF7F1FC401B0228F5D9032051E0E6
:100AB000E369226A1343626A43EA8213A26A520814
:100AC000013A43EA0243E26A43EA0263284A536076
:100AD000284B01221A66FFF7D7FC0446244B1B68FB
:100AE00013F0007F06D1FFF7CFFC001B0228F5D9D9
:100AF00003202FE000202DE000202BE0012B2BD045
:100B00001B4B5B6803F48001E269914226D103F03C
:100B10003F02216A8A4223D1616A47F6C0721A40B5
:100B2000B2EB811F1ED103F44031A26A5208013A90
:100B3000B1EB024F18D103F07063E26AB3EB026FBE
:100B400014D1002006E001207047012002E00120BE
:100B500000E0002002B070BD0120FBE70120F9E7B2
:100B60000120F7E70120F5E70120F3E70120F1E795
:100B7000003802400000474208B5264B9B6803F04E
:100B80000C03042B41D0082B41D1224B5A6802F0B0
:100B90003F025B6813F4800F12D01E4B5968C1F3FB
:100BA00088111D480023A1FB0001FFF7F3FA194B40
:100BB0005B68C3F3014301335B00B0FBF3F027E054
:100BC000144B5868C0F388104FEA401CBCEB000C73
:100BD0006EEB0E0E4FEA8E1343EA9C634FEA8C11C4
:100BE000B1EB0C0163EB0E03DB0043EA5173C90068
:100BF00011EB000C43F10003990200234FEA8C2013
:100C000041EA9C51FFF7C6FAD1E7034800E00348E8
:100C100008BD00BF0038024040787D010024F40088
:100C2000002800F09B8070B50D4604464F4B1B68B2
:100C300003F007038B4208D2CBB24C4A13701368FF
:100C400003F007038B4240F08B80236813F0020F00
:100C500017D013F0040F04D0454A936843F4E053CF
:100C60009360236813F0080F04D0414A936843F45B
:100C7000604393603E4A936823F0F003A1680B43FE
:100C80009360236813F0010F32D06368012B21D0E9
:100C90009A1E012A25D9364A126812F0020F61D035
:100CA00033498A6822F0030213438B60FFF7ECFBA1
:100CB00006462F4B9B6803F00C036268B3EB820F70
:100CC00016D0FFF7E1FB801B41F288339842F0D940
:100CD000032042E0264A126812F4003FE0D10120CE
:100CE0003BE0234A126812F0007FD9D1012034E0A2
:100CF0001E4B1B6803F00703AB4207D9EAB21B4B3C
:100D00001A701B6803F00703AB422DD1236813F060
:100D1000040F06D0164A936823F4E053E1680B43AE
:100D20009360236813F0080F07D0114A936823F4E7
:100D30006043216943EAC1039360FFF71DFF0C4B39
:100D40009B68C3F303130B4AD35CD8400A4B18606B
:100D50000A4B1868FFF74CFB002070BD012070475C
:100D60000120FAE70120F8E70120F6E7003C024005
:100D70000038024020120008000000200800002077
:100D80002DE9F047089D0C46002B4ED194468C452A
:100D90008646B2FA82F262D94AB1C2F1200391408A
:100DA00020FA03F30CFA02FC194300FA02FE4FEAA0
:100DB0001C471FFA8CF6B1FBF7F44FEA1E4307FB02
:100DC000141143EA014304FB06F199420AD91CEBD2
:100DD000030304F1FF3080F01381994240F2108147
:100DE000023C6344591A1FFA8EF3B1FBF7F007FB7C
:100DF000101143EA014300FB06F69E420AD91CEBA0
:100E0000030300F1FF3180F0FD809E4240F2FA8042
:100E1000634402389B1B40EA044000211DB1D340CB
:100E20000022C5E90032BDE8F0878B4205D90DB13B
:100E3000C5E9000100210846F5E7B3FA83F100296E
:100E400046D1A34202D39042C0F0F180861A64EBEF
:100E500003030120002DE6D0C5E90063E3E7002A83
:100E600040F09180A1EB0C044FEA1C481FFA8CF76C
:100E70000121B4FBF8F64FEA1E4308FB164443EA8F
:100E8000044307FB06F0984208D91CEB030306F164
:100E9000FF3402D2984200F2CE8026461C1A1FFA76
:100EA0008EF3B4FBF8F008FB104443EA044300FB64
:100EB00007F79F4208D91CEB030300F1FF3402D26D
:100EC0009F4200F2B1802046DB1B40EA0640A5E7C6
:100ED000C1F120068B4022FA06F71F4320FA06FCD8
:100EE00004FA01F343EA0C03F44000FA01F8380C69
:100EF0004FEA1349B4FBF0FE1FFA87FC00FB1E44C7
:100F000049EA04440EFB0CF9A14502FA01F20AD9A0
:100F10003C190EF1FF3A80F08580A14540F28280B5
:100F2000AEF1020E3C44A4EB09041FFA83F9B4FBB2
:100F3000F0F300FB134449EA044403FB0CFCA44512
:100F400007D93C1903F1FF3068D2A44566D9023BAA
:100F50003C4443EA0E40A0FB0293A4EB0C049C42E9
:100F6000CE469C4652D34FD055B1B8EB0E0364EB3E
:100F70000C0404FA06F6CB40CC401E43C5E90064DD
:100F80000021BDE8F087C2F1200320FA03F10CFA3A
:100F900002FC24FA03F394400C434FEA1C4800FA85
:100FA00002FE1FFA8CF7B3FBF8F008FB1031230C9C
:100FB00043EA014300FB07F1994208D91CEB030304
:100FC00000F1FF362CD299422AD9023863445B1AC9
:100FD000A4B2B3FBF8F108FB113344EA034401FB6C
:100FE00007F3A34208D91CEB040401F1FF3613D226
:100FF000A34211D902396444E41A41EA004138E7B6
:101000000446EFE6084605E7C845ADD2B9EB020E47
:1010100063EB070C0138A7E73146EDE7034698E795
:101020003046D4E7D6467EE7634402384CE70646AE
:10103000234608460EE7023E63442FE7002301469D
:101040001A46184600F092B8830730B547D0541EB0
:10105000002A3ED0CAB2034601E0013C39D303F86E
:10106000012B9D07F9D1032C2CD9CDB205EB052519
:101070000F2C05EB054535D9A4F1100222F00F0C19
:1010800003F1100EE6444FEA121C1A461560556033
:101090009560D56010327245F8D10CF1010214F060
:1010A0000C0F03EB021204F00F0C13D0ACF104038D
:1010B00023F003030433134442F8045B9A42FBD148
:1010C0000CF003042CB1C9B21C4403F8011B9C4270
:1010D000FBD130BD64461346002CF4D1F9E703463A
:1010E0001446C0E71A46A446E0E700BF70B50F4BB0
:1010F0000F4DAB42A3EB050607D0B610002455F800
:10110000043B01349847A642F9D800F07DF8094D18
:10111000094B5E1BAB424FEAA60606D0002455F8E9
:10112000043B01349847A642F9D870BD3812000834
:1011300038120008381200084012000838B5074D70
:10114000074C2C1BA41005D0013C55F8043D9847D2
:10115000002CF9D1BDE8384000F05CB8441200081A
:1011600040120008704700BF704700BF2DE9F047EC
:10117000DFF874A00646DAF8000098460F4691465C
:10118000FFF7F0FF194B1C6824B365681F2D24DCA2
:101190005EB96B1C0235DAF80000636044F8257014
:1011A000FFF7E2FF0020BDE8F08704EB8501012393
:1011B000C1F88890D4F88821AB401A43022EC4F8B5
:1011C0008821C1F80881E4D1D4F88C211A43C4F8ED
:1011D0008C21DEE7064C1C60D7E7DAF80000FFF749
:1011E000C3FF4FF0FF30DEE70C000020C4010020F9
:1011F00034000020024B13B10248FFF71FBF7047B5
:10120000000000003D110008F8B500BFF8BC08BCA4
:101210009E467047F8B500BFF8BC08BC9E467047B4
:101220000000000000000000010203040607080996
:1012300050FBFF7F01000000F5110008ED010008E0
:10124000C90100080024F4000100000010000000A3
:04125000300000204A
:020000040802F0
:100000007086002035020208050D0208D50C020892
:10001000010D02082B040208C50D020800000000B3
:100020000000000000000000000000000B0D0208AE
:100030002F04020800000000090D02080D0D02083F
:100040004F0202084F0202084F0202084F02020844
:100050004F0202084F0202084F0202084F02020834
:100060004F0202084F0202084F0202084F02020824
:100070004F0202084F0202084F0202084F02020814
:100080004F0202084F0202084F020208000000005F
:100090000000000000000000000000004F02020805
:1000A0004F0202084F0202084F0202084F020208E4
:1000B0004F0202084F0202084F0202084F020208D4
:1000C0004F0202084F0202084F0202084F020208C4
:1000D0004F0202084F0202084F020208000000000F
:1000E0004F0202084F0202084F02020800000000FF
:1000F0000000000000000000000000004F020208A5
:10010000000000004F0202084F0202084F020208DE
:1001100000000000000000000000000000000000DF
:100120004F0202084F0202084F0202084F02020863
:100130004F02020800000000000000000000000064
:100140000000000000000000000000004F02020854
:100150004F0202084F0202084F0202084F02020833
:100160004F0202084F0202080000000000000000D9
:10017000000000000000000000000000000000007F
:10018000000000004F020208000000000000000014
:100190004F02020800F002F800F03CF80AA090E8D4
:1001A000000C82448344AAF10107DA4501D100F032
:1001B00031F8AFF2090EBAE80F0013F0010F18BFC3
:1001C000FB1A43F001031847740C0000940C000064
:1001D000103A24BF78C878C1FAD8520724BF30C873
:1001E00030C144BF04680C60704700000023002445
:1001F00000250026103A28BF78C1FBD8520728BF37
:1002000030C148BF0B6070471FB500F005FE1FBD31
:1002100010B510BD00F0CFF81146FFF7F5FF00F064
:10022000F3FD00F0EDF803B4FFF7F2FF03BC00F0BC
:10023000F5F800000948804709480047FEE7FEE757
:10024000FEE7FEE7FEE7FEE7FEE7FEE7FEE7FEE786
:1002500004480549054A064B70470000B10D0208E5
:1002600095010208708000207086002070820020B6
:100270007082002053EA020C00F069802DE9F04BF7
:100280004FF00006002B1FBFB3FA83F503FA05F405
:1002900024FA05F65E4012BF1643B2FA82F502FA5E
:1002A00005F4C5F120051EBF22FA05FC44EA0C0442
:1002B000203556EA044C4FEA144418BF641C4FF032
:1002C00000084FF00009904271EB030C39D300296C
:1002D00019BFB1FA81F701FA07F6B0FA80F700FA10
:1002E00007F6C7F120071EBF20FA07FC46EA0C06F6
:1002F0002037B6FBF4FCA7EB0507103F07F01F0BF8
:10030000CBF120060CFA0BFB2CFA06F644BFB346E1
:100310000026202FA4BF5E464FF0000B5BEA060CC0
:1003200008BF4FF0010B19EB0B09ABFB027C48EB4C
:100330000608C01B06FB02CC0BFB03CC71EB0C01C7
:10034000C1E70B46024641464846BDE8F08B13B56F
:100350004FF000004FF00001AFF30080BDE81C40FB
:1003600070474FF0000200B5134694469646203978
:1003700022BFA0E80C50A0E80C50B1F12001BFF45E
:10038000F7AF090728BFA0E80C5048BF0CC05DF8C4
:1003900004EB890028BF40F8042B08BF704748BF12
:1003A00020F8022B11F0804F18BF00F8012B704786
:1003B000704770477047754600F02CF8AE46050050
:1003C0006946534620F00700854618B020B5FFF770
:1003D0003FFFBDE820404FF000064FF000074FF010
:1003E00000084FF0000B21F00701AC46ACE8C00953
:1003F000ACE8C009ACE8C009ACE8C0098D4670475C
:1004000010B50446AFF300802046BDE81040FFF76A
:100410000ABF0000004870471080002001491820E2
:10042000ABBEFEE726000200704700BFFEE7704744
:1004300072B600BFFEE70000014800687047000088
:1004400000800020034800680349097808440149F6
:1004500008607047008000200880002010B50D481B
:10046000006840F400700B4908600846006840F4DA
:10047000806008600846006840F4807008600320CF
:1004800000F092F80F2000F007F800F02BF80020A1
:1004900010BD0000003C024070B504460E480078D4
:1004A0004FF47A71B1FBF0F00C490968B1FBF0F53B
:1004B000284600F0F5FB08B1012070BD102C07D2D2
:1004C00000222146501E00F031F80548046001E08A
:1004D0000120F2E70020F0E7088000200C800020D7
:1004E0000480002008B500BF002000900E4800687E
:1004F00040F480400C4908600846006800F48040E1
:10050000009000BF00BF00BF00200090081F0068DF
:1005100040F08050091F08600846006800F08050D5
:10052000009000BF00BF08BD443802402DE9F05FD5
:1005300080460D461646002700F046FC0746394621
:100540002A46334601F00700C0F1070ABAF1040F4A
:1005500002D94FF0040A01E0C0F1070AD14600F1C8
:10056000040ABAF1070F02D24FF0000A01E0A0F12D
:10057000030AD4464FF0010A0AFA09FAAAF1010A5D
:100580000AEA020A0AFA0CFA4FF0010B0BFA0CFB0A
:10059000ABF1010B0BEA030B4AEA0B042146404680
:1005A00000F01AFCBDE8F09F00BF00F00702064B08
:1005B00019684FF6FF031940044B0B4343EA02212D
:1005C000014B196000BF70470CED00E00000FA0518
:1005D00070B504460D460CB9012070BD584800683E
:1005E00000F00700A84209D255490D70084600687E
:1005F00000F00700A84201D00120EEE7207800F0CB
:10060000020002281DD1207800F00400042805D142
:100610004C48006840F4E0504A490860207800F0F7
:100620000800082805D14748006840F46040454963
:1006300008604448006820F0F000A1680843414980
:100640000860207800F00100A8B36068012807D195
:100650003C4808380068C0F34040B8B90120BCE706
:100660006068022802D06068032807D1354808383E
:100670000068C0F3406048B90120AEE7314808384F
:100680000068C0F3400008B90120A6E72D480068C3
:1006900020F00300616808432A490860FFF7CCFE98
:1006A000064609E0FFF7C8FE801B41F28831884208
:1006B00002D9032091E707E02248006800F00C000F
:1006C0006168B0EB810FEDD11D48006800F00700B4
:1006D000A84209D91A490D700846006800F00700C1
:1006E000A84201D0012078E7207800F00400042817
:1006F00007D11448006820F4E050E168084311492C
:100700000860207800F00800082808D10D4800682B
:1007100020F46040216940EAC1000A49086000F005
:1007200019F808490968C1F30311074A515CC84028
:100730000649086006480068FFF7AEFE00204CE757
:10074000003C024008380240220E02080C800020C3
:10075000048000202DE9F047002400250026A14652
:100760002548006800F00C0020B1042805D00828B6
:100770003AD105E0DFF8849039E0DFF8849036E084
:100780001D48001F006800F03F041B48001F006860
:1007900000F4800078B11A481749091F0968C1F3AD
:1007A0008811A0FB01700146224600233846FFF75E
:1007B00061FD05460EE011480F49091F0968C1F3A4
:1007C0008811A0FB01700146224600233846FFF73E
:1007D00051FD05460848001F0068C0F30140401C59
:1007E0004600B5FBF6F902E0DFF8109000BF00BF4D
:1007F0004846BDE8F0870000083802400024F400B5
:1008000040787D01F8B504460CB90120F8BD207888
:1008100000F00100002874D0F948006800F00C00D6
:1008200004280DD0F648006800F00C00082813D109
:10083000F348001F006800F48000B0F5800F0BD172
:10084000EF4808380068C0F34040002859D060687D
:10085000002856D10120D9E700BF6068B0F5803F7D
:1008600008D1E7480838006840F48030E449083986
:1008700008601EE06068B0F5A02F0DD1E048083890
:10088000006840F48020DE490839086008460068A6
:1008900040F4803008600CE0D9480838006820F443
:1008A0008030D749083908600846006820F4802065
:1008B000086000BF606890B1FFF7BEFD054606E026
:1008C000FFF7BAFD401B642801D903209EE7CC48FE
:1008D00008380068C0F340400028F1D011E0FFF76D
:1008E000ABFD054606E0FFF7A7FD401B642801D9D4
:1008F00003208BE7C24808380068C0F34040002856
:10090000F1D1207800F0020002285FD1BC480068D5
:1009100000F00C0058B1BA48006800F00C0008283C
:100920001CD1B748001F006800F48000B0B9B4487B
:1009300008380068C0F3400020B1E068012801D009
:10094000012063E7AE480838006820F0F80021690C
:1009500040EAC100AA490839086037E0E06800B3FE
:100960000120A8490860FFF767FD054606E0FFF78C
:1009700063FD401B022801D9032047E7A04808383F
:100980000068C0F340000028F1D09D480838006896
:1009900020F0F800216940EAC1009949083908604F
:1009A00014E0002097490860FFF746FD054606E081
:1009B000FFF742FD401B022801D9032026E790489B
:1009C00008380068C0F340000028F1D1207800F01A
:1009D000080008282CD16069A8B101208A49086064
:1009E000FFF72AFD054606E0FFF726FD401B02281B
:1009F00001D903200AE782486C300068C0F3400048
:100A00000028F1D014E000207F490860FFF714FDB2
:100A1000054606E0FFF710FD401B022801D9032020
:100A2000F4E677486C300068C0F340000028F1D14C
:100A3000207800F00400042870D100277048383076
:100A4000006800F0805090B900BF002000906C4812
:100A50003830006840F080506949383108600846F5
:100A6000006800F08050009000BF00BF0127674879
:100A7000006800F48070B0B96448006840F4807089
:100A800062490860FFF7D8FC054606E0FFF7D4FC92
:100A9000401B022801D90320B8E65C48006800F436
:100AA00080700028F2D000BFA068012808D1544807
:100AB0006830006840F001005149683108601DE06D
:100AC000A06805280DD14E486830006840F0040049
:100AD0004B49683108600846006840F00100086032
:100AE0000CE047486830006820F001004449683154
:100AF00008600846006820F00400086000BFA06895
:100B0000A8B1FFF799FC054609E0FFF795FC401BEB
:100B100041F28831884202D9032077E626E038483E
:100B200068300068C0F340000028EED013E0FFF703
:100B300083FC054608E0FFF77FFC401B41F288314B
:100B4000884201D9032061E62D4868300068C0F36F
:100B500040000028EFD1012F07D129483830006824
:100B600020F0805026493831086000BFA069002875
:100B700045D02348006800F00C0008285DD0A0692B
:100B8000022845D100201F490866FFF755FC05469D
:100B900006E0FFF751FC401B022801D9032035E68F
:100BA000174808380068C0F340600028F1D1D4E944
:100BB00007010843616A40EA81110122A06AC2EB81
:100BC000500041EA00412C20005D41EA00600C49E0
:100BD000091F086001200B490866FFF72DFC054638
:100BE00006E0FFF729FC401B022801D903200DE68F
:100BF000034808380068C0F340600028F1D049E09D
:100C00000838024000004742800E47420070004012
:100C1000002021490866FFF70FFC054606E0FFF7B4
:100C20000BFC401B022801D90320EFE51B4800689C
:100C3000C0F340600028F2D12CE0A069012800D167
:100C4000E4E51648001D0668A069012820D006F4D6
:100C50008001E06981421BD106F03F01206A814298
:100C600016D147F6C0703040616AB0EB811F0FD1DA
:100C700006F440310122A06AC2EB5000B1EB004FF4
:100C800006D106F070612C20005DB1EB006F01D041
:100C90000120BBE50020B9E50000474200380240D2
:100CA00070B504462546681EB0F1807F01D301204F
:100CB0000FE0681E4FF0E02148610F214FF0FF3038
:100CC00000F08AF800204FF0E021886107200861D9
:100CD000002070BD00BFFEE708B500BF00200090F7
:100CE0000648006840F001000449086008460068B2
:100CF00000F00100009000BF00BF08BD3038024086
:100D000000BFFEE700BFFEE77047704710B5FFF772
:100D100099FB10BD00B593B0302107A8FFF721FB68
:100D2000142102A8FFF71DFB00BF002001901E4800
:100D3000006840F080501C4908600846006800F0D8
:100D40008050019000BF00BF00BF002001901748F5
:100D5000006820F4404040F4004014490860084610
:100D6000006800F44040019000BF00BF02200790DF
:100D700001200A9010200B9000200D9007A8FFF78B
:100D800041FD08B1FFF754FB0F20029000200390B3
:100D9000049005900690002102A8FFF719FC08B105
:100DA000FFF746FB13B000BD403802400070004022
:100DB0000348006840F47000014908607047000073
:100DC00088ED00E000BFFEE702480068C0F30220A3
:100DD000704700000CED00E010B5002804DB0A07A6
:100DE000130E054A135406E00A07140E034A00F0D6
:100DF0000F031B1FD45410BD00E400E018ED00E009
:100E0000024602FB01F07047FFF728FBFFF782FF65
:100E1000FFF762FF00BFFEE74FF04070E1EE100AFF
:100E200070470000000000000000010203040607F4
:100E30000809000000000102030400005C0E020823
:100E40000080002010000000D00102086C0E020893
:100E50001080002060060000EC0102080000000085
:0C0E600010000000010000000024F4005D
:00000001FF
